:1000000000308A0090280000412AAB21CD23C61E73
:100010003100412AAB21CD23D31E22183119331AC6
:10002000351B371C39110D0500015434653374102C
:10003000613661396D100A000B08A2008B1383161C
:1000400003178C170C140000000083120313A21B6B
:100050008B1703170C087F39031972280313A200AA
:1000600003170D080313A30003170F080313A400BD
:1000700022080C1E39289900230803178D0003134A
:10008000240803178F0003130B08A5008B13831696
:1000900003178C170C140000000083120313A51B18
:1000A0008B1703170C0D0E0D7F39031972280313DC
:1000B000A20003170D080313A30003170F0803136F
:1000C000A40022080C1E62289900230803178D0043
:1000D0000313240803178F008D0A03198F0A0313D3
:1000E0001C28031703130800043003178D00003089
:1000F0008F0003131C20093003178D0000308F0080
:1001000003131C20153003178D0000308F000313DC
:100110001C201A300C1E8A2899008A110A12BC2849
:1001200003081F398300813083169900A630980098
:1001300090308312980083161F149F141F159F116F
:1001400007309C0083138312A001A1018130831624
:100150009900A630980090308312980083160610FC
:1001600083120610831605148312051CBC288316FF
:0C0170000610831206147428B2286300E5
:02400E00733FFE
:00000001FF
;PIC16F877A
;CRC=A1F4  CREATED="27-May-25 00:29"
